:020000040800F2
:100000000050002051260008E9250008EB250008D3
:10001000ED250008EF250008F1250008000000008C
:100020000000000000000000000000005113000864
:10003000F325000800000000E1130008F525000882
:100040009926000899260008992600089926000894
:100050009926000899260008992600089926000884
:100060009926000899260008992600089926000874
:100070009926000899260008992600089926000864
:100080009926000899260008992600089926000854
:100090009926000899260008992600089926000844
:1000A00099260008F92500089926000899260008D5
:1000B0009926000899260008992600089926000824
:1000C0009926000899260008992600089926000814
:1000D0009926000899260008992600089926000804
:1000E00099260008992600089926000800000000BB
:1000F0000000000000000000000000000000000000
:0C01000000000000000000005FF808F1A3
:1001100010B5054C237833B9044B13B10448AFF341
:1001200000800123237010BD440000200000000067
:10013000E426000808B5034B1BB103490348AFF39D
:10014000008008BD0000000048000020E4260008F0
:10015000034613F8012B002AFBD1181A0138704707
:10016000074A08B51368032043F01003136000F03A
:1001700017F8002002F0FCF902F060F9002008BD39
:1001800000200240024A136801331360704700BF29
:10019000B40D0020014B1868704700BFB40D00205B
:1001A000074A0002D36800F4E06023F4E0631B0414
:1001B0001B0C43F0BF6343F400330343D360704729
:1001C00000ED00E0174B30B5DC68C4F30224C4F145
:1001D0000703251D042B28BF0423062D4FF001051E
:1001E00098BF002405FA03F303F1FF3388BF033CF3
:1001F0001940A14005FA04F4013C2240002842EADB
:1002000001024FEA0212AFBF00F16040064B00F05E
:100210000F00D2B2A5BFD2B200F561401A5480F8E7
:10022000002330BD00ED00E014ED00E001234209A1
:1002300000F01F0003FA00F0014B43F82200704762
:1002400000E100E00138B0F1807F0AD2F021064BD6
:10025000064A586082F823100020072298601A602E
:1002600070470120704700BF10E000E000ED00E0A3
:10027000044B04281A680CBF42F0040222F0040266
:100280001A60704710E000E02DE9F74F0022164693
:10029000654BDFF8A4E1DFF8A4C14FF001080C685A
:1002A00008FA06F808EA0404A0457FD14D68122D2B
:1002B00000F0AF8000F28880022D00F0A7807CD88B
:1002C000002D00F08E80012D00F09E804FF00F0970
:1002D000FF2C93BF824606F18045083DD0F800B060
:1002E00092BFB500D0F804B0AD0009FA05F82BEACA
:1002F000080802FA05F588BF00F1040A48EA050576
:10030000CAF80050D1F804A01AF0805F4ED0474DD3
:10031000464FAD6926F0030845F00105BD61BD6992
:1003200008F1804805F00105019508F5803806F0D0
:10033000030B019D4FEA8B0BD8F8085009FA0BF913
:1003400025EA09093A4DA84268D005F58065A8421A
:1003500066D005F58065A84264D005F58065A842A1
:100360000CBF0325042505FA0BF545EA0905C8F875
:1003700008501D681AF4803F14BF2543A5431D6033
:100380005D681AF4003F14BF2543A5435D609D6876
:100390001AF4801F14BF2543A5439D60DD681AF43D
:1003A000001F14BF2C4325EA0404DC600136102E24
:1003B0007FF473AF03B0BDE8F08F032D22D0112D71
:1003C00084D1CA68043281E71A4FBD4209D012D8DD
:1003D000DFF86C904D4504D009F580394D457FF428
:1003E00075AF8A68C2B1012A0CBFC0F81080C0F88E
:1003F000148008226AE77545F3D06545F1D0DFF82F
:100400004490EBE7002261E7CA685FE7CA680832F8
:100410005CE7CA680C3259E7042257E70025A2E7D7
:100420000125A0E702259EE70004014000100240DC
:1004300000080140000021100000311000003210BF
:1004400000001110000022100AB101617047090478
:10045000FBE7C3685940C1607047000003682DE99D
:10046000F341DB07054610D42B689F075ED42B6849
:10047000190700F195802B685A0700F1BF80EA69DF
:10048000002A40F02D81002014E0904C636803F0B6
:100490000C03042B07D0636803F00C03082B0CD16A
:1004A0006368DE0309D523689C03DDD56B68002BE8
:1004B000DAD1012002B0BDE8F0816B68B3F5803F6E
:1004C00010D1236843F480332360FFF763FE0646B0
:1004D00023689803C8D4FFF75DFE801B6428F7D912
:1004E0000320E7E79BB9236823F480332360236864
:1004F00023F480232360FFF74DFE0646236899030B
:10050000B2D5FFF747FE801B6428F7D9E8E7B3F5BB
:10051000A02F236803D143F480232360D1E723F481
:1005200080332360236823F48023CDE7674C63681E
:1005300013F00C0F07D0636803F00C03082B10D1E5
:100540006368DA030DD423689B0702D52B69012B5E
:10055000AFD123686A6923F0F80343EAC20323603A
:1005600085E72A695A4B6AB101221A60FFF712FE29
:10057000064623689F07ECD4FFF70CFE801B022879
:10058000F7D9ADE71A60FFF705FE0646236898071E
:100590007FF56DAFFFF7FEFD801B0228F6D99FE7C0
:1005A000AA694A4C4B4BDAB101221A60FFF7F2FDFF
:1005B0000646636A9B070DD54FF4FA52464B1B68FB
:1005C000B3FBF2F3019300BF019B5A1E0192002B73
:1005D000F9D150E7FFF7DEFD801B0228E9D97FE75C
:1005E0001A60FFF7D7FD0646636A9F077FF543AFA2
:1005F000FFF7D0FD801B0228F6D971E7334CE36981
:10060000D80024D40127E36943F08053E361E36910
:1006100003F080530093009B304E3368D90518D502
:10062000EB68012B26D1236A43F001032362FFF715
:10063000B1FD41F288368046236A9B073FD5002FE3
:100640003FF41DAFE36923F08053E36117E7002710
:10065000E2E7336843F480733360FFF79BFD804625
:100660003368DA05DCD4FFF795FDA0EB08006428B9
:10067000F6D935E7ABB9236A41F2883823F0010394
:100680002362236A23F004032362FFF783FD0646F7
:10069000236A9807D3D5FFF77DFD801B4045F7D926
:1006A0001EE7052B236A03D143F004032362BAE754
:1006B00023F001032362236A23F00403B6E7FFF764
:1006C00069FDA0EB0800B042B6D909E7001002406E
:1006D000000042428004424240000020007000407E
:1006E000224C636803F00C03082B3FF4E2AE0023B6
:1006F0001F4E022A33602BD1FFF74CFD07462368BB
:1007000099011FD42B6AB3F5803F05D16268A968AF
:1007100022F400320A436260696A62680B4322F481
:1007200074121343636001233360FFF733FD054602
:1007300023689A013FF5A7AEFFF72CFD401B022866
:10074000F6D9CDE6FFF726FDC01B0228D7D9C7E6AC
:10075000FFF720FD054623689B017FF594AEFFF768
:1007600019FD401B0228F6D9BAE600BF001002406E
:100770006000424230B51A4B87B002AC03F110055D
:10078000224618685968083303C2AB421446F7D1B1
:1007900001238DF80430022312498DF805304B688F
:1007A00003F00C02082A18D1C3F38342DB0348BFCD
:1007B0004B6806A8024448BFC3F3404312F8100C2C
:1007C00041BF06AA9B1813F8142C074B54BF074BC4
:1007D000B3FBF2F3584307B030BD0348FBE700BF5B
:1007E000FC2600080010024000127A0000093D00BB
:1007F0004D4A2DE9F0411368054603F007038B428B
:100800000E4628D32A68910732D4D20738D4464AF4
:10081000136803F007039E4273D32A68434C12F017
:10082000040F79D1130706D563682A6923F460534E
:1008300043EAC2036360FFF79DFF63683C4AC3F36A
:100840000313D35CD8403B4B1860002001F090FEAE
:100850000020BDE8F081136823F007030B43136009
:10086000136803F007039942CCD00120BDE8F08162
:100870002E49A8684B6823F0F00303434B60C4E79C
:100880006A682A4C012A23681CD113F4003FECD07B
:10089000636841F2883823F0030313436360FFF772
:1008A00079FC6B680746012B14D1636803F00C03D5
:1008B000042BACD0FFF76EFCC01B4045F5D90320DC
:1008C000BDE8F081022A02D113F0007FDFE713F0C8
:1008D000020FDCE7022B0FD1636803F00C03082B37
:1008E00095D0FFF757FCC01B4045F5D9E7E7FFF768
:1008F00051FCC01B4045E2D8636813F00C0FF6D1E1
:1009000085E7136823F0070333431360136803F08C
:1009100007039E42A9D180E76368E96823F4E06396
:100920000B4363607EE700BF0020024000100240DE
:100930006C27000840000020014B1868704700BF7A
:1009400040000020044B054A5B68C3F30223D35CDC
:10095000034A1068D8407047001002407C27000806
:1009600040000020044B054A5B68C3F3C223D35CFC
:10097000034A1068D8407047001002407C270008E6
:10098000400000200F2303600B4B5A6802F0030263
:1009900042605A6802F0F00282605A6802F4E06233
:1009A000C2605B68DB0803F4E0630361034B1B6810
:1009B00003F007030B607047001002400020024064
:1009C000036A70B523F001030362036A4468826915
:1009D0000D6822F073022A438D6823F002032B4333
:1009E0000A4DA8420BD1CD6823F008032B438E6932
:1009F0004D6924F44074354323F004032C434460D0
:100A000082614A684263036270BD00BF002C0140EE
:100A1000036A70B523F480730362036A4468C26991
:100A20000D6822F073022A438D6823F4007343EAB1
:100A300005230B4DA8420DD1CD6823F4006343EA92
:100A400005238E694D6924F44054354323F48063B3
:100A500044EA05144460C2614A68C263036270BD1F
:100A6000002C0140036A30B523F480530362036A0B
:100A70004468C2690D6822F4E64242EA05228D68A4
:100A800023F4005343EA0533064DA84202BF4D69E3
:100A900024F4804444EA85144460C2614A680264D4
:100AA000036230BD002C0140704703680020DA6803
:100AB00042F00102DA601A6842F001021A607047DF
:100AC0007047704770477047036810B51A6904464D
:100AD00091070ED5DA6892070BD56FF002021A6102
:100AE00001229B6902779B0777D0FFF7EAFF00237B
:100AF000237723681A69500710D5DA6851070DD596
:100B00006FF004021A6102229B69227713F4407F7E
:100B1000204668D0FFF7D5FF0023237723681A69A2
:100B200012070FD5DA6810070CD56FF008021A61AA
:100B30000422DB692277990720465AD0FFF7C1FFCC
:100B40000023237723681A69D20610D5DA68D00605
:100B50000DD56FF010021A610822DB69227713F4B9
:100B6000407F20464BD0FFF7ACFF0023237723685C
:100B70001A69D10708D5DA68D20705D56FF00102E6
:100B800020461A6101F042FC23681A69100608D554
:100B9000DA68110605D56FF0800220461A6100F070
:100BA00074F923681A69520608D5DA68500605D523
:100BB0006FF0400220461A61FFF785FF23681A692B
:100BC000910622D5DA6892061FD56FF020022046E2
:100BD000BDE810401A6100F057B9FFF771FF2046D9
:100BE000FFF770FF83E7FFF76BFF2046FFF76AFF11
:100BF00092E7FFF765FF2046FFF764FFA0E7FFF7E6
:100C00005FFF2046FFF75EFFAFE710BD1A4A03689B
:100C100090420AD0B0F1804F07D0A2F594329042B2
:100C200003D002F58062904215D14A6823F0700328
:100C30001343114A90420AD0B0F1804F07D0A2F579
:100C40009432904203D002F58062904203D1CA6888
:100C500023F4407313434A6923F080031343036072
:100C60008B68C3620B688362034B984204BF0B69B5
:100C70000363012343617047002C014010B5044613
:100C8000A0B190F83D3003F0FF021BB980F83C2082
:100C9000FFF70AFF0223206884F83D30211DFFF78B
:100CA000B5FF0123002084F83D3010BD012010BDA8
:100CB00010B50446A0B190F83D3003F0FF021BB917
:100CC00080F83C2001F002FC0223206884F83D30CB
:100CD000211DFFF79BFF0123002084F83D3010BD4C
:100CE000012010BD036A70B523F010030362036A8C
:100CF000446882690D6822F4E64242EA05228D6862
:100D000023F0200343EA05130B4DA8420DD1CD6813
:100D100023F0800343EA05138E694D6924F440648F
:100D2000354323F0400344EA8504446082614A6805
:100D30008263036270BD00BF002C014038B590F89B
:100D40003C300446012B4FF0020025D0012384F8EB
:100D50003D0084F83C300C2A18D8DFE802F0071771
:100D600017171E1717172F17171740002068FFF7C0
:100D700027FE236809699A6942F008029A619A6914
:100D800022F004029A619A690A439A6101230020C1
:100D900084F83D3084F83C0038BD2068FFF7A2FF9E
:100DA000236809699A6942F400629A619A6922F497
:100DB00080629A619A6942EA0122E6E72068FFF7B9
:100DC00027FE23680969DA6942F00802DA61DA6904
:100DD00022F00402DA61DA690A43DA61D6E72068B0
:100DE000FFF740FE23680969DA6942F40062DA61BC
:100DF000DA6922F48062DA61DA6942EA0122ECE718
:100E000010B50124036A8C4023EA04030362036AD9
:100E10008A401A43026210BD10B5044601220068E0
:100E2000FFF7EEFF2368064A0020934202BF5A6C88
:100E300042F400425A641A6842F001021A6010BD7E
:100E4000002C014090F83C3010B5012B4FF002030C
:100E500018D080F83D3003680C685A68496822F061
:100E600070025A605A6822435A609A6822F08002DF
:100E70009A609A680A439A60012380F83D30002303
:100E800080F83C30184610BD704770472DE9F04798
:100E90000568C2682B69016923F4405313432B6131
:100EA0008368EA680B43416922F4B05222F00C02D5
:100EB0000B431343EB606B69826923F44073134364
:100EC0006B61404B81469D424FF0190446D1FFF7BC
:100ED00049FD04FB00F3D9F804604FF06408B60044
:100EE000B3FBF6F3B3FBF8F31E01FFF73BFD6043E2
:100EF000D9F804309B00B0FBF3F7FFF733FD6043F4
:100F0000D9F804309B00B0FBF3F3B3FBF8F308FB14
:100F100013731B013233B3FBF8F303F0F007FFF751
:100F200021FD6043D9F804209200B0FBF2FAFFF7EC
:100F300019FD6043D9F804309B00B0FBF3F3B3FB19
:100F4000F8F308FB13A31B013233B3FBF8F303F0F0
:100F50000F033B433344AB60BDE8F087FFF7F2FC7F
:100F600004FB00F3D9F804604FF06408B600B3FB4B
:100F7000F6F3B3FBF8F31E01FFF7E4FC6043D9F886
:100F800004309B00B0FBF3F7FFF7DCFC6043D9F8BB
:100F900004309B00B0FBF3F3B3FBF8F308FB1373CF
:100FA0001B013233B3FBF8F303F0F007FFF7CAFC81
:100FB0006043D9F804209200B0FBF2FAFFF7C2FCBC
:100FC000B7E700BF00380140F8B504460E461746A3
:100FD0001D4621680B6836EA030301D10020F8BDE5
:100FE0006B1CF7D095B923680320DA6822F4D0721D
:100FF000DA605A6922F001025A61202384F83930FC
:1010000084F83A30002384F83830F8BDFFF7C2F88E
:10101000C01B8542DDD2E6E710B5044640B390F828
:10102000393003F0FF021BB980F8382001F074FA60
:101030002423226884F83930D368204623F40053EF
:10104000D360FFF723FF236800201A6922F490423F
:101050001A615A6922F02A025A61DA6842F400528F
:10106000DA602023E06384F8393084F83A3010BD28
:10107000012010BD2DE9F0411F4690F8393004469B
:10108000202B0D4690464ED1002949D0002A47D04A
:1010900090F83830012B46D0012380F838300023F7
:1010A000C363212380F83930FFF774F80646A4F8AB
:1010B0002480A4F82680E38C9BB26BB93B46324671
:1010C00040212046FFF780FFA8B9202384F838008C
:1010D00084F83930BDE8F081E38C3246013B9BB2A5
:1010E000E384A3688021B3F5805F20463B460ED1A0
:1010F000FFF76AFF10B10320BDE8F0812B8822685A
:10110000C3F308035360236943B90235D3E7FFF7FC
:101110005BFF0028EFD123682A785A600135CAE7BF
:101120000120BDE8F0810220BDE8F0812DE9F04109
:101130001F4690F83A300446202B0D46904651D178
:1011400000294CD0002A4AD090F83830012B49D0E1
:10115000012380F838300023C363222380F83A301B
:10116000FFF718F80646A4F82C80A4F82E80E08D2E
:1011700080B230B9202384F8380084F83A30BDE8D2
:10118000F081E38D3246013B9BB2E385A3682021C9
:10119000B3F5805F20463B4612D1FFF715FF10B133
:1011A0000320BDE8F081236822695B6822B9C3F39C
:1011B000080325F8023BDAE7DBB225F8013BD6E766
:1011C000FFF702FF0028EBD1236821696A1C5B68E6
:1011D00011B92B701546CAE703F07F03F9E7012028
:1011E000BDE8F0810220BDE8F08108B500F002FC06
:1011F000002008BD30B5B0F9084085B0842C08BF88
:101200000024028A18BF03340B4690E8220003A88A
:1012100001900094284600F01DFB012814BF002017
:10122000039805B030BD08B5002808BF012000F0C4
:101230002FFD002008BD002203C800F091BA08B5B8
:1012400000F000FE012803D0BDE8084000F0EAB835
:1012500008BD00F1080343604FF0FF32C360036133
:101260000023826003607047002303617047436876
:101270009A684B608A609A68516099600368086157
:101280000133036070470A6830B5531C0AD1036903
:101290005A684A6091608B60596003680861013345
:1012A000036030BD00F108035C682568AA42EFD3F3
:1012B0002346F9E74168826803698A608268516061
:1012C0005968884208BF5A600022026118680138D4
:1012D000186070470A4B1B68013308D04FF0500369
:1012E00083F31188BFF36F8FBFF34F8FFEE74FF08B
:1012F000500383F31188BFF36F8FBFF34F8FFEE767
:101300000000002006480068006880F3088862B684
:1013100061B6BFF34F8FBFF36F8F00DF00BF0000D8
:1013200008ED00E04FF0807340F8043C054B21F0DD
:10133000010140F8081C40F80C3C40F8202C4038D3
:10134000704700BFD5120008000000000000000038
:10135000074B19680868B0E8F00F80F30988BFF3FD
:101360006F8F4FF0000080F311884EF00D0E704724
:10137000800C00204FF0500383F31188BFF36F8F70
:10138000BFF34F8F0A4A13680133012B13600DD14D
:10139000084B1B6813F0FF0F08D04FF0500383F386
:1013A0001188BFF36F8FBFF34F8FFEE7704700BF09
:1013B0000000002004ED00E0084A136843B94FF034
:1013C000500383F31188BFF36F8FBFF34F8FFEE796
:1013D000013B13600BB983F31188704700000020B4
:1013E000EFF30980BFF36F8F0D4B1A6820E9F00F00
:1013F00010602DE908404FF0500080F3118800F094
:10140000A5FC4FF0000080F31188BDE80840196882
:101410000868B0E8F00F80F30988BFF36F8F70475A
:10142000800C002008B54FF0500383F31188BFF300
:101430006F8FBFF34F8F00F021FB18B14FF0805238
:10144000024B1A60002383F3118808BD04ED00E00D
:101450004FF47A72054B1B68B3FBF2F3044A013B6D
:1014600013600722034B1A60704700BF4000002042
:1014700014E000E010E000E013B51F4B00211A78E3
:10148000D2B20192FF221A701B781C4ADBB28DF88F
:1014900003309DF8033003F0500313700722184BFC
:1014A0001A609DF80300541E00061CD401B11A6096
:1014B0001A68120202F4E0621A60019B0E4ADBB263
:1014C0001370104B1A6842F470021A601A6842F0E6
:1014D00070421A60FFF7BCFF00220B4B1A60FFF747
:1014E00011FFFFF7F7FE9DF8032001215200D2B251
:1014F0008DF803202246D4E700E400E060000020DD
:101500006400002020ED00E00000002010B50F4B2B
:101510001A68824218D35C681919884201BF416871
:10152000184609195960446801198A4207D10849C7
:1015300009688A421FBF51681268091941609842C0
:10154000026018BF186010BD1346E1E7780C002058
:10155000680000202DE9F041044600F087FA3E497A
:101560003E4D0B680BBB3E4A56071DBFD01D20F0F9
:10157000070002F540634FF440631CBF02461B1A8C
:1015800000201344374E083B23F00703706032609D
:10159000586018600B60981A1360334B50601860E5
:1015A000324B18604FF000432B602F68274216D152
:1015B000002C40D004F1080358071CBF23F0070398
:1015C000083363B1294A16689046B34207D8254AC2
:1015D00015686868834204D809688D4207D10024E1
:1015E00029E02C68002CF7D02A462546F1E7296827
:1015F00014681160C21A102A0FD9E818410708D0E0
:101600004FF0500383F31188BFF36F8FBFF34F8FF9
:10161000FEE742606B60FFF779FF6B681249F61ACC
:101620001F4300230868C8F80060864238BF0E6078
:1016300008346F602B6000F0B3FA630708D04FF0F6
:10164000500383F31188BFF36F8FBFF34F8FFEE713
:101650002046BDE8F08100BF680000206C0C00202F
:101660006C000020780C0020740C0020700C00200E
:1016700010B5044670B3184A50F8043C126813427F
:1016800008D14FF0500383F31188BFF36F8FBFF37E
:101690004F8FFEE750F8081C41B14FF0500383F321
:1016A0001188BFF36F8FBFF34F8FFEE723EA02036A
:1016B00040F8043C00F0DAF9084A54F8043C116898
:1016C000A4F108000B441360FFF720FFBDE81040B1
:1016D00000F066BA10BD00BF6C0C0020700C00203A
:1016E00038B50D46044640B94FF0500383F31188D6
:1016F000BFF36F8FBFF34F8FFEE7FFF73BFE206C0A
:10170000E36B22684343D1181B1A13446160E36002
:101710000021FF23A163A26084F8443084F845309F
:1017200095B9236963B104F1100000F049FB38B1A9
:101730004FF08052094B1A60BFF34F8FBFF36F8F8A
:10174000FFF73AFE012038BD04F11000FFF781FDDC
:1017500004F12400FFF77DFDF2E700BF04ED00E097
:1017600070B50D46064640B94FF0500383F311881B
:10177000BFF36F8FBFF34F8FFEE748434830FFF74B
:10178000E9FE044638B145B92060E66325640121CD
:101790002046FFF7A5FF204670BD00F14803036017
:1017A000F3E70000064A13681968064B19B94FF0B1
:1017B000FF321A6070471268D268D2685268F8E740
:1017C000840C00205C0D0020F8B51B4B1B4E1D68DF
:1017D000044630680F460430FFF76CFD334640B9CD
:1017E00001203168164EC96A3268884022EA000238
:1017F0003260621C07D137B1196812480431BDE864
:10180000F840FFF734BD2C441A68A542546007D94C
:101810000D4A10681968BDE8F8400431FFF733BD80
:101820000A4A106819680431FFF72DFD084B1A6841
:10183000944238BF1C60F8BDA40D0020800C00202D
:101840002C0D00207C0D0020880C0020840C002032
:101850005C0D00202DE9F84F4FEA820A8046504681
:101860000F4699460B9EFFF775FE0546002800F0CF
:1018700096805420FFF76EFE0446002800F08C800E
:10188000AAF1040A056355447B1E25F0070A00F1FE
:1018900034020F37597802F8011B13F8011F09B100
:1018A000BB42F7D10A9D4FF0000B062D28BF06253D
:1018B000271DE5626564384684F843B0C4F848B033
:1018C000FFF7D2FCC5F1070504F11800FFF7CCFCC7
:1018D000C4F84CB02461A561646284F850B04A46F3
:1018E00041465046FFF71EFD206006B13460FFF709
:1018F00041FD324B324E1A68DFF8F08001321A6037
:101900003568002D4ED134601B68012B1DD108EBCA
:1019100005001435FFF79DFC8C2DF8D1DFF8D09031
:10192000284D4846FFF795FC2846FFF792FC2648CD
:10193000FFF78FFC2548FFF78CFC2548FFF789FC53
:10194000244BC3F80090244B1D600125234A2449F1
:101950001368086801331360E26A05FA02F303436F
:1019600014200B6000FB02803946FFF780FCFFF774
:1019700023FD1C4B1B6863B13368DA6AE36A9A4241
:1019800007D24FF08052184B1A60BFF34F8FBFF34E
:101990006F8F2846BDE8F88F2846FFF769FE4FF0A5
:1019A000FF35F6E70F4B1B68002BCED13368DA6AA0
:1019B000E36A9A4298BF3460C7E700BF180D002061
:1019C000800C0020440D0020640D0020900D0020AC
:1019D0007C0D0020840C0020880C0020280D0020A5
:1019E0002C0D0020780D002004ED00E08C0C002070
:1019F000300D002013B50024164B00940193802273
:101A0000234615491548FFF725FF012814D14FF04B
:101A1000500383F31188BFF36F8FBFF34F8F4FF0E5
:101A2000FF320F4B1A600F4B18600F4B1C6002B057
:101A3000BDE81040FFF720BD013008D14FF0500342
:101A400083F31188BFF36F8FBFF34F8FFEE702B0B0
:101A500010BD00BF580D002067270008D91C0008E2
:101A60005C0D0020780D0020A40D0020024A1368B0
:101A700001331360704700BF240D00202DE9F84F9B
:101A80003C4B1B68002B53D13B4B1C6801341C6042
:101A9000BCB93A4B1A68126842B14FF0500383F355
:101AA0001188BFF36F8FBFF34F8FFEE7344A196879
:101AB000106818601160334A136801331360FFF730
:101AC00071FE314D4FF0000B2B68304F9C423ED3DE
:101AD000DFF8A880DFF8C490D8F80020126872BB45
:101AE0004FF0FF322A6032E006F1040A5046FFF759
:101AF000E1FBB16A19B106F11800FFF7DBFB012227
:101B00004FF0140EF06AD9F8003002FA00F11943D0
:101B10001F4BC9F800100EFB00305146FFF7A7FB22
:101B20003868F16AC26A914228BF4FF0010BD3E7CF
:101B3000184A4FF0000B13680133136011E0D8F816
:101B40000020D268D66871688C42CDD229603A688C
:101B50000F4BD16A14224A439A58022A28BF4FF0E9
:101B6000010B0D4A1268002A18BF4FF0010B5846AE
:101B7000BDE8F88F240D0020A40D0020840C002067
:101B8000880C0020600D00205C0D0020800C0020DF
:101B90008C0C0020200D0020A80D00202C0D002012
:101BA0002DE9F843314C236843B94FF0500383F3D8
:101BB0001188BFF36F8FBFF34F8FFEE7FFF7DAFB9C
:101BC0002368013B236024682CB10024FFF7F4FB59
:101BD0002046BDE8F883264B1B68002BF5D0DFF8C4
:101BE000A890244FDFF8A480D9F80030E3B90CB1F5
:101BF000FFF7D8FD204D2C6844B101271F4EFFF799
:101C00003DFF00B13760013CF9D12C601B4B1B68D4
:101C1000002BDAD04FF08052194B1A60BFF34F8F70
:101C2000BFF36F8F0124D1E7D9F80C300125DC68B0
:101C3000261D04F11800FFF73DFB3046FFF73AFB85
:101C40001420E26A396805FA02F30B4300FB0280B4
:101C500031463B60FFF70BFB0A4BE26A1B68DB6A0D
:101C60009A4224BF054B1D60BEE700BF240D002033
:101C7000180D00202C0D0020200D0020A80D0020A4
:101C800004ED00E0800C0020640D00208C0C00208E
:101C900008B540B94FF080520D4B1A60BFF34F8F1B
:101CA000BFF36F8F08BD0B4B196841B14FF0500364
:101CB00083F31188BFF36F8FBFF34F8FFEE7FFF7FA
:101CC000D5FEFFF781FDFFF76BFF0028E2D008BDCE
:101CD00004ED00E0240D002008B5174E174C2368D2
:101CE00063B9174B1B68012BF8D94FF08052154B85
:101CF0001A60BFF34F8FBFF36F8FEFE7FFF7B6FEAA
:101D00003568FFF74DFF002DE9D0FFF733FBF3688F
:101D1000DD68281DFFF7CEFA0B4A1368013B1360FC
:101D20002368013B2360FFF747FB286BFFF7A0FC0C
:101D30002846FFF79DFCD2E7900D00201C0D0020E7
:101D40008C0C002004ED00E0180D0020174B10B59E
:101D50001A68174B12B101221A6010BD1A60154B98
:101D60001B68B3FA83F31422DBB2C3F11F035A4397
:101D700011498C58881844B94FF0500383F31188E7
:101D8000BFF36F8FBFF34F8FFEE74468083264687C
:101D90000A44944208BF6268446008BF426014224B
:101DA00002FB03135B68DA68044BD5E7240D0020BF
:101DB000A80D00202C0D00208C0C0020800C002091
:101DC00038B5C368DC6844B94FF0500383F3118819
:101DD000BFF36F8FBFF34F8FFEE704F1180528465E
:101DE000FFF768FA114B1B68E3B9251D2846FFF77A
:101DF00061FA01230E49E26A086893400343142004
:101E00000B6029460B4B00FB0230FFF730FA0A4B00
:101E1000E26A1B68DB6A9A4285BF0120074B0020FB
:101E2000186038BD29460648EFE700BF240D0020A2
:101E30002C0D00208C0C0020800C0020A80D002010
:101E4000640D0020054B1B6833B1054B1B68002B4C
:101E50000CBF02200020704701207047780D002041
:101E6000240D0020B0B58CB000AFFEF779F900F07A
:101E700045F800F041F900F093F800F00FF9194B24
:101E800007F11C041D460FCD0FC42B68236007F11A
:101E90001C0300211846FFF7ADF90246124B1A60E9
:101EA000124B07F108041D460FCD0FC42B682360A9
:101EB00007F1080300211846FFF79CF902460C4B76
:101EC0001A600C4A3B4692E8030083E803003B4655
:101ED00000211846FFF7AFF90246074B1A60FFF7DB
:101EE00084F9FEE714270008240E00203427000898
:101EF0006C0E002048270008280E002080B590B006
:101F000000AF0123BB614FF48033FB6100233B62D0
:101F10000123BB6202237B634FF48033BB634FF426
:101F2000E013FB6307F118031846FEF797FA034620
:101F3000002B03D0CF21184800F07AFA0F237B60E2
:101F40000223BB600023FB604FF480633B610023EE
:101F50007B613B1D02211846FEF74AFC0346002B1D
:101F600003D0DD210C4800F063FAFEF7E5FC0246E1
:101F70000A4BA3FB02239B091846FEF763F90420D2
:101F8000FEF776F900220F214FF0FF30FEF71AF925
:101F900000BF4037BD4680BD50270008D34D6210BA
:101FA00080B58AB000AF3B4B4FF080421A60394B8E
:101FB0000F225A60374B00229A60364B43F2C942D7
:101FC000DA60344B00221A61324B00229A613148A8
:101FD000FEF76EFE0346002B03D0FB212E4800F0D7
:101FE00027FA00233B6200237B6207F12003194696
:101FF0002848FEF727FF0346002B04D04FF48171D9
:10200000254800F015FA60237B600023BB600023A5
:10201000FB6000237B613B1D002219461D48FEF733
:102020008DFE0346002B04D040F20B111A4800F03D
:10203000FFF93B1D042219461648FEF77FFE0346B2
:10204000002B04D04FF48871134800F0F1F93B1DC8
:10205000082219460F48FEF771FE0346002B04D0F4
:1020600040F215110C4800F0E3F93B1D0C22194613
:102070000848FEF763FE0346002B04D04FF48D7131
:10208000054800F0D5F9034800F032FA00BF2837C0
:10209000BD4680BD2C0E00205027000880B500AF43
:1020A000124B134A1A60114B4FF4E1325A600F4B36
:1020B00000229A600D4B0022DA600C4B00221A615C
:1020C0000A4B0C225A61094B00229A61074B0022ED
:1020D000DA610648FEF7A0FF0346002B04D040F269
:1020E0002F11044800F0A4F900BF80BDE00D0020CE
:1020F000003801405027000880B588B000AF1D4A65
:102100001C4B9B6943F0100393611A4B9B6903F0CE
:102110001003FB60FB68174A164B9B6943F02003D2
:102120009361144B9B6903F02003BB60BB68114AA9
:10213000104B9B6943F0040393610E4B9B6903F0C2
:1021400004037B607B6800224FF400510A48FEF7CD
:102150007BF94FF400533B6101237B610223FB6158
:1021600007F1100319460448FEF78EF800BF203728
:10217000BD4680BD001002400010014080B483B015
:1021800000AF144B00221A700023FB710AE0FB79A8
:10219000114A0021D154FB79104A0021D154FB7916
:1021A0000133FB71FB79132BF1D90D4B1B68002216
:1021B0005A630B4B1B6800229A63094B1B68002271
:1021C000DA63074B1B6800221A6400BF0C37BD4658
:1021D00080BC7047200E0020CC0D0020B80D0020E0
:1021E0002C0E002080B500AF174B1B78302B27D169
:1021F000154B5B78312B23D1134B9B78322B1FD19E
:10220000114BDB78332B1BD10F4B1B79342B17D1A0
:102210000D4B5B79352B13D10B4B9B79362B0FD1A3
:10222000094BDB79372B0BD1074B1B7A382B07D1A6
:10223000054B5B7A392B03D100F008F8012300E04D
:102240000023184680BD00BFCC0D002080B500AF34
:102250004FF400512248FEF7FCF8224B9B7A182BD2
:1022600002D9204B18229A721F4B1B681D4A927A82
:1022700011461E4A32F811205A631A4BDB7A182B8A
:1022800002D9184B1822DA72174B1B68154AD27AFA
:102290001146164A32F811209A63124B1B7B182BF9
:1022A00002D9104B18221A730F4B1B680D4A127B70
:1022B00011460E4A32F81120DA630A4B5B7B182B69
:1022C00002D9084B18225A73074B1B68054A527BE8
:1022D0001146064A32F811201A6400BF80BD00BFC3
:1022E00000100140CC0D00202C0E00200400002026
:1022F00080B582B000AF78604FF49670FEF793FF20
:10230000FAE7000080B586B000AF78600023FB7567
:1023100000213748FEF780FD04213548FEF77CFD9B
:1023200008213348FEF778FD0C213148FEF774FD93
:10233000FFF724FF2F4B1B681B6803F02003202BA3
:1023400017D107F11701012301222A48FEF7EEFEFB
:10235000294B1B781A46F97D284B9954264B1B783C
:102360000133DAB2244B1A70FDF714FF0246244BF6
:102370001A60214B1B78142B2ED11F4B00221A7090
:10238000FFF730FF0346002B11D007F10C031D4A65
:102390001A6007F10C031846FDF7DAFE03469AB2FD
:1023A00007F10C010A231348FEF764FE14E007F15D
:1023B0000C03154A92E8030018600433198007F1F2
:1023C0000C031846FDF7C4FE03469AB207F10C0150
:1023D0000A230848FEF74EFEFDF7DCFE0246084BD6
:1023E0001B68D31A322BA5D9034B00221A70A1E720
:1023F0002C0E0020E00D0020AC0D0020CC0D0020A4
:10240000B00D00204F4B0A0D6027000880B582B048
:1024100000AF78607B681B68044A934201D1FDF7E6
:10242000B1FE00BF0837BD4680BD00BF002C014093
:1024300080B483B000AF78603960FEE7214B07B508
:102440009A69032042F001029A619B6903F001033B
:102450000193019BFDF7A4FE00226FF00B001146D3
:10246000FDF7B0FE00226FF00A001146FDF7AAFE4C
:1024700000226FF009001146FDF7A4FE00226FF064
:1024800004001146FDF79EFE00226FF00300114686
:10249000FDF798FE00220F216FF00100FDF792FE7C
:1024A00000220F214FF0FF30FDF78CFE064B5A68DB
:1024B00022F0E0625A605A6842F000725A6003B03B
:1024C0005DF804FB0010024000000140036882B088
:1024D000B3F1804F0AD103F50433DA6942F0010207
:1024E000DA61DB6903F001030193019B02B07047DD
:1024F0001FB50368B3F1804F08D10F230093022367
:102500006946044801930393FDF7BEFE05B05DF8EC
:1025100004FB00BF000801407FB50268124B9A42DD
:102520001FD103F558439A6902A942F480429A6187
:102530009B690E4803F480430193019B4FF40073A1
:1025400002930223039303230593FDF79DFE4FF4AB
:1025500080630293002302A9044803930493FDF7C8
:1025600093FE07B05DF804FB00380140000801400D
:1025700010B5014688B000221920FDF723FE19206E
:10258000FDF754FE144B01A99A6903A842F40062B6
:102590009A619B69114C03F400630293029BFEF75E
:1025A000F1F9FEF7DFF90E4B236040F2E733E36009
:1025B0000C4BB0FBF3F00023013860602046236130
:1025C000A360FEF75BFB20B92046FEF76EFA08B069
:1025D00010BD0120FBE700BF00100240700E00207C
:1025E000002C014040420F007047FEE7FEE7FEE787
:1025F000FEE77047FEF723BE0148FEF765BA00BF4D
:10260000700E00200F4B1A6842F001021A605968E0
:102610000D4A0A405A601A6822F0847222F480320D
:102620001A601A6822F480221A605A6822F4FE02A4
:102630005A604FF41F029A604FF00062034B9A6099
:10264000704700BF001002400000FFF800ED00E0FE
:10265000002103E00B4B5B58435004310A480B4BFD
:1026600042189A42F6D30A4A02E0002342F8043B99
:10267000084B9A42F9D3FFF7C5FF00F00FF8FFF7B8
:10268000F1FB70478C270008000000204400002068
:1026900044000020B00E0020FEE7000070B50025C9
:1026A0000C4E0D4CA41BA410A54209D100F01AF841
:1026B00000250A4E0A4CA41BA410A54205D170BDEA
:1026C00056F8253098470135EEE756F825309847FB
:1026D0000135F2E7842700088427000884270008D2
:1026E00088270008F8B500BFF8BC08BC9E467047B4
:0C26F000F8B500BFF8BC08BC9E4670475F
:1026FC0002030405060708090A0B0C0D0E0F101037
:10270C0050776D5461736B000C270008F1220008A0
:10271C000000000000000000800000005561727491
:10272C005461736B00000000282700080523000883
:10273C00FDFF000000000000800000001000000001
:10274C00020000002E2E2F5372632F6D61696E2EC6
:10275C00630000004641494C0A0D0049444C4500B9
:10276C000000000000000000010203040607080935
:08277C0000000000010203044B
:042784003501000813
:042788001101000833
:10278C00AAAAAAAA0000140028003C005000640069
:10279C009600C8002C019001F401EE02E803DC0560
:1027AC00D007C409B80BA00F88137017581B401F13
:1027BC001027E02EC93400000000000000000000CB
:0427CC0000A24A0419
:040000050800265178
:00000001FF
